{
  "contractName": "Lottery",
  "abi": [
    {
      "inputs": [],
      "payable": false,
      "stateMutability": "nonpayable",
      "type": "constructor"
    },
    {
      "constant": true,
      "inputs": [],
      "name": "lastWinnerPickedTime",
      "outputs": [
        {
          "internalType": "uint256",
          "name": "",
          "type": "uint256"
        }
      ],
      "payable": false,
      "stateMutability": "view",
      "type": "function"
    },
    {
      "constant": true,
      "inputs": [],
      "name": "manager",
      "outputs": [
        {
          "internalType": "address",
          "name": "",
          "type": "address"
        }
      ],
      "payable": false,
      "stateMutability": "view",
      "type": "function"
    },
    {
      "constant": true,
      "inputs": [
        {
          "internalType": "uint256",
          "name": "",
          "type": "uint256"
        }
      ],
      "name": "players",
      "outputs": [
        {
          "internalType": "address",
          "name": "",
          "type": "address"
        }
      ],
      "payable": false,
      "stateMutability": "view",
      "type": "function"
    },
    {
      "constant": true,
      "inputs": [],
      "name": "winnerAddress",
      "outputs": [
        {
          "internalType": "address",
          "name": "",
          "type": "address"
        }
      ],
      "payable": false,
      "stateMutability": "view",
      "type": "function"
    },
    {
      "constant": false,
      "inputs": [],
      "name": "enter",
      "outputs": [],
      "payable": true,
      "stateMutability": "payable",
      "type": "function"
    },
    {
      "constant": false,
      "inputs": [],
      "name": "pickWinner",
      "outputs": [],
      "payable": true,
      "stateMutability": "payable",
      "type": "function"
    },
    {
      "constant": true,
      "inputs": [],
      "name": "getWinnerAddress",
      "outputs": [
        {
          "internalType": "address",
          "name": "",
          "type": "address"
        }
      ],
      "payable": false,
      "stateMutability": "view",
      "type": "function"
    },
    {
      "constant": true,
      "inputs": [],
      "name": "getPlayers",
      "outputs": [
        {
          "internalType": "address[]",
          "name": "",
          "type": "address[]"
        }
      ],
      "payable": false,
      "stateMutability": "view",
      "type": "function"
    }
  ],
  "bytecode": "0x608060405234801561001057600080fd5b50336000806101000a81548173ffffffffffffffffffffffffffffffffffffffff021916908373ffffffffffffffffffffffffffffffffffffffff1602179055506108ad806100606000396000f3fe60806040526004361061007b5760003560e01c8063e97dcb621161004e578063e97dcb62146101a4578063ed7a4e0b146101ae578063f10434ba14610205578063f71d96cb146102305761007b565b806310a37c2614610080578063481c6a75146100d75780635d495aea1461012e5780638b5b9ccc14610138575b600080fd5b34801561008c57600080fd5b506100956102ab565b604051808273ffffffffffffffffffffffffffffffffffffffff1673ffffffffffffffffffffffffffffffffffffffff16815260200191505060405180910390f35b3480156100e357600080fd5b506100ec6102d5565b604051808273ffffffffffffffffffffffffffffffffffffffff1673ffffffffffffffffffffffffffffffffffffffff16815260200191505060405180910390f35b6101366102fa565b005b34801561014457600080fd5b5061014d61051e565b6040518080602001828103825283818151815260200191508051906020019060200280838360005b83811015610190578082015181840152602081019050610175565b505050509050019250505060405180910390f35b6101ac6105ac565b005b3480156101ba57600080fd5b506101c3610673565b604051808273ffffffffffffffffffffffffffffffffffffffff1673ffffffffffffffffffffffffffffffffffffffff16815260200191505060405180910390f35b34801561021157600080fd5b5061021a610699565b6040518082815260200191505060405180910390f35b34801561023c57600080fd5b506102696004803603602081101561025357600080fd5b810190808035906020019092919050505061069f565b604051808273ffffffffffffffffffffffffffffffffffffffff1673ffffffffffffffffffffffffffffffffffffffff16815260200191505060405180910390f35b6000600260009054906101000a900473ffffffffffffffffffffffffffffffffffffffff16905090565b6000809054906101000a900473ffffffffffffffffffffffffffffffffffffffff1681565b6000809054906101000a900473ffffffffffffffffffffffffffffffffffffffff1673ffffffffffffffffffffffffffffffffffffffff163373ffffffffffffffffffffffffffffffffffffffff16146103bc576040517f08c379a000000000000000000000000000000000000000000000000000000000815260040180806020018281038252601c8152602001807f4f6e6c79206d616e616765722063616e207069636b2077696e6e65720000000081525060200191505060405180910390fd5b60006001805490506103cc6106db565b816103d357fe5b069050600181815481106103e357fe5b9060005260206000200160009054906101000a900473ffffffffffffffffffffffffffffffffffffffff16600260006101000a81548173ffffffffffffffffffffffffffffffffffffffff021916908373ffffffffffffffffffffffffffffffffffffffff16021790555042600381905550600260009054906101000a900473ffffffffffffffffffffffffffffffffffffffff1673ffffffffffffffffffffffffffffffffffffffff1673ffffffffffffffffffffffffffffffffffffffff166108fc479081150290604051600060405180830381858888f193505050501580156104d3573d6000803e3d6000fd5b5060006040519080825280602002602001820160405280156105045781602001602082028038833980820191505090505b506001908051906020019061051a92919061077d565b5050565b606060018054806020026020016040519081016040528092919081815260200182805480156105a257602002820191906000526020600020905b8160009054906101000a900473ffffffffffffffffffffffffffffffffffffffff1673ffffffffffffffffffffffffffffffffffffffff1681526020019060010190808311610558575b5050505050905090565b662386f26fc10000341161060b576040517f08c379a000000000000000000000000000000000000000000000000000000000815260040180806020018281038252602e81526020018061084b602e913960400191505060405180910390fd5b60013390806001815401808255809150509060018203906000526020600020016000909192909190916101000a81548173ffffffffffffffffffffffffffffffffffffffff021916908373ffffffffffffffffffffffffffffffffffffffff16021790555050565b600260009054906101000a900473ffffffffffffffffffffffffffffffffffffffff1681565b60035481565b600181815481106106ac57fe5b906000526020600020016000915054906101000a900473ffffffffffffffffffffffffffffffffffffffff1681565b60004442600160405160200180848152602001838152602001828054801561075857602002820191906000526020600020905b8160009054906101000a900473ffffffffffffffffffffffffffffffffffffffff1673ffffffffffffffffffffffffffffffffffffffff168152602001906001019080831161070e575b505093505050506040516020818303038152906040528051906020012060001c905090565b8280548282559060005260206000209081019282156107f6579160200282015b828111156107f55782518260006101000a81548173ffffffffffffffffffffffffffffffffffffffff021916908373ffffffffffffffffffffffffffffffffffffffff1602179055509160200191906001019061079d565b5b5090506108039190610807565b5090565b61084791905b8082111561084357600081816101000a81549073ffffffffffffffffffffffffffffffffffffffff02191690555060010161080d565b5090565b9056fe45746865722076616c7565206e65656420746f2062652067726561746572207468616e20302e3031206574686572a265627a7a72315820c3d3827d017b3f64ae95d79b831a2f4a5da8ec88cdf1cef28db66f5e21493a0d64736f6c63430005100032",
  "source": "pragma solidity >=0.4.22 <0.7.0;\n\ncontract Lottery {\n    \n    address public manager;\n    address[] public players;\n    address public winnerAddress;\n    uint public lastWinnerPickedTime;\n    \n    constructor() public {\n        manager = msg.sender;\n    }\n    \n    function enter() public payable {\n        require(msg.value > .01 ether,'Ether value need to be greater than 0.01 ether');\n        players.push(msg.sender);\n    }\n    \n    function random() private view returns (uint256) {\n        return uint256(keccak256(abi.encodePacked(block.difficulty, now, players)));\n    }\n    \n    function pickWinner() public payable restricted {\n        uint256 index = random()%players.length;\n        winnerAddress = players[index];\n        lastWinnerPickedTime = now;\n        address(uint256(winnerAddress)).transfer(address(this).balance);\n        players = new address[](0);\n    }\n\n    function getWinnerAddress() public view returns (address) {\n        return winnerAddress;\n    }\n    \n    modifier restricted() {\n        require(msg.sender == manager, 'Only manager can pick winner');\n        _;\n    }\n    \n    function getPlayers() public view returns (address[] memory){\n        return players;\n    }\n    \n}",
  "sourcePath": "/home/thivanka/Desktop/solidity-token/contracts/Lottery.sol",
  "compiler": {
    "name": "solc",
    "version": "0.5.16+commit.9c3226ce.Emscripten.clang"
  },
  "schemaVersion": "3.0.23",
  "updatedAt": "2020-02-29T13:52:19.571Z",
  "networkType": "ethereum",
  "devdoc": {
    "methods": {}
  },
  "userdoc": {
    "methods": {}
  }
}